{
  "_format": "hh-sol-artifact-1",
  "contractName": "SSVOperators",
  "sourceName": "contracts/SSVOperators.sol",
  "abi": [
    {
      "inputs": [
        {
          "internalType": "uint64",
          "name": "",
          "type": "uint64"
        }
      ],
      "name": "earnings",
      "outputs": [
        {
          "internalType": "uint256",
          "name": "",
          "type": "uint256"
        }
      ],
      "stateMutability": "view",
      "type": "function"
    },
    {
      "inputs": [],
      "name": "lastId",
      "outputs": [
        {
          "internalType": "uint64",
          "name": "",
          "type": "uint64"
        }
      ],
      "stateMutability": "view",
      "type": "function"
    },
    {
      "inputs": [
        {
          "internalType": "uint64",
          "name": "",
          "type": "uint64"
        }
      ],
      "name": "owners",
      "outputs": [
        {
          "internalType": "address",
          "name": "",
          "type": "address"
        }
      ],
      "stateMutability": "view",
      "type": "function"
    },
    {
      "inputs": [
        {
          "internalType": "bytes",
          "name": "",
          "type": "bytes"
        },
        {
          "internalType": "uint256",
          "name": "fee",
          "type": "uint256"
        },
        {
          "internalType": "bool",
          "name": "",
          "type": "bool"
        }
      ],
      "name": "registerOperator",
      "outputs": [
        {
          "internalType": "uint64",
          "name": "id",
          "type": "uint64"
        }
      ],
      "stateMutability": "nonpayable",
      "type": "function"
    },
    {
      "inputs": [
        {
          "internalType": "uint64",
          "name": "operatorId",
          "type": "uint64"
        },
        {
          "internalType": "address",
          "name": "newOwner",
          "type": "address"
        }
      ],
      "name": "setOperatorOwner",
      "outputs": [],
      "stateMutability": "nonpayable",
      "type": "function"
    },
    {
      "inputs": [
        {
          "internalType": "uint64",
          "name": "operatorId",
          "type": "uint64"
        }
      ],
      "name": "withdrawAllOperatorEarnings",
      "outputs": [],
      "stateMutability": "nonpayable",
      "type": "function"
    },
    {
      "stateMutability": "payable",
      "type": "receive"
    }
  ],
  "bytecode": "0x608060405234801561001057600080fd5b50610b0c806100206000396000f3fe6080604052600436106100595760003560e01c80633a32ef65146100655780634bc93b64146100a257806358f20a63146100cb5780639729499014610108578063c1292cc314610131578063c9bbc9fa1461015c57610060565b3661006057005b600080fd5b34801561007157600080fd5b5061008c600480360381019061008791906105e0565b610199565b6040516100999190610626565b60405180910390f35b3480156100ae57600080fd5b506100c960048036038101906100c491906105e0565b6101b1565b005b3480156100d757600080fd5b506100f260048036038101906100ed91906105e0565b6103b1565b6040516100ff9190610682565b60405180910390f35b34801561011457600080fd5b5061012f600480360381019061012a91906106c9565b6103e4565b005b34801561013d57600080fd5b5061014661044e565b6040516101539190610718565b60405180910390f35b34801561016857600080fd5b50610183600480360381019061017e91906107fc565b610468565b6040516101909190610718565b60405180910390f35b60006020528060005260406000206000915090505481565b600160008267ffffffffffffffff1667ffffffffffffffff16815260200190815260200160002060009054906101000a900473ffffffffffffffffffffffffffffffffffffffff1673ffffffffffffffffffffffffffffffffffffffff163373ffffffffffffffffffffffffffffffffffffffff1614610266576040517f08c379a000000000000000000000000000000000000000000000000000000000815260040161025d906108cd565b60405180910390fd5b60008060008367ffffffffffffffff1667ffffffffffffffff168152602001908152602001600020549050600081116102d4576040517f08c379a00000000000000000000000000000000000000000000000000000000081526004016102cb90610939565b60405180910390fd5b60008060008467ffffffffffffffff1667ffffffffffffffff1681526020019081526020016000208190555060003373ffffffffffffffffffffffffffffffffffffffff16826040516103269061098a565b60006040518083038185875af1925050503d8060008114610363576040519150601f19603f3d011682016040523d82523d6000602084013e610368565b606091505b50509050806103ac576040517f08c379a00000000000000000000000000000000000000000000000000000000081526004016103a3906109eb565b60405180910390fd5b505050565b60016020528060005260406000206000915054906101000a900473ffffffffffffffffffffffffffffffffffffffff1681565b80600160008467ffffffffffffffff1667ffffffffffffffff16815260200190815260200160002060006101000a81548173ffffffffffffffffffffffffffffffffffffffff021916908373ffffffffffffffffffffffffffffffffffffffff1602179055505050565b600260009054906101000a900467ffffffffffffffff1681565b60008083116104ac576040517f08c379a00000000000000000000000000000000000000000000000000000000081526004016104a390610a57565b60405180910390fd5b6002600081819054906101000a900467ffffffffffffffff166104ce90610aa6565b91906101000a81548167ffffffffffffffff021916908367ffffffffffffffff1602179055905033600160008367ffffffffffffffff1667ffffffffffffffff16815260200190815260200160002060006101000a81548173ffffffffffffffffffffffffffffffffffffffff021916908373ffffffffffffffffffffffffffffffffffffffff160217905550678ac7230489e800006000808367ffffffffffffffff1667ffffffffffffffff16815260200190815260200160002081905550949350505050565b600080fd5b600080fd5b600067ffffffffffffffff82169050919050565b6105bd816105a0565b81146105c857600080fd5b50565b6000813590506105da816105b4565b92915050565b6000602082840312156105f6576105f5610596565b5b6000610604848285016105cb565b91505092915050565b6000819050919050565b6106208161060d565b82525050565b600060208201905061063b6000830184610617565b92915050565b600073ffffffffffffffffffffffffffffffffffffffff82169050919050565b600061066c82610641565b9050919050565b61067c81610661565b82525050565b60006020820190506106976000830184610673565b92915050565b6106a681610661565b81146106b157600080fd5b50565b6000813590506106c38161069d565b92915050565b600080604083850312156106e0576106df610596565b5b60006106ee858286016105cb565b92505060206106ff858286016106b4565b9150509250929050565b610712816105a0565b82525050565b600060208201905061072d6000830184610709565b92915050565b600080fd5b600080fd5b600080fd5b60008083601f84011261075857610757610733565b5b8235905067ffffffffffffffff81111561077557610774610738565b5b6020830191508360018202830111156107915761079061073d565b5b9250929050565b6107a18161060d565b81146107ac57600080fd5b50565b6000813590506107be81610798565b92915050565b60008115159050919050565b6107d9816107c4565b81146107e457600080fd5b50565b6000813590506107f6816107d0565b92915050565b6000806000806060858703121561081657610815610596565b5b600085013567ffffffffffffffff8111156108345761083361059b565b5b61084087828801610742565b94509450506020610853878288016107af565b9250506040610864878288016107e7565b91505092959194509250565b600082825260208201905092915050565b7f4e6f74206f776e65720000000000000000000000000000000000000000000000600082015250565b60006108b7600983610870565b91506108c282610881565b602082019050919050565b600060208201905081810360008301526108e6816108aa565b9050919050565b7f4e6f206561726e696e6773000000000000000000000000000000000000000000600082015250565b6000610923600b83610870565b915061092e826108ed565b602082019050919050565b6000602082019050818103600083015261095281610916565b9050919050565b600081905092915050565b50565b6000610974600083610959565b915061097f82610964565b600082019050919050565b600061099582610967565b9150819050919050565b7f5472616e73666572206661696c65640000000000000000000000000000000000600082015250565b60006109d5600f83610870565b91506109e08261099f565b602082019050919050565b60006020820190508181036000830152610a04816109c8565b9050919050565b7f46656520746f6f206c6f77000000000000000000000000000000000000000000600082015250565b6000610a41600b83610870565b9150610a4c82610a0b565b602082019050919050565b60006020820190508181036000830152610a7081610a34565b9050919050565b7f4e487b7100000000000000000000000000000000000000000000000000000000600052601160045260246000fd5b6000610ab1826105a0565b915067ffffffffffffffff8203610acb57610aca610a77565b5b60018201905091905056fea2646970667358221220753c3c5c8ee5fea6fcff3d4550df2f5b1ada05901ef667b1d217b5e14a896df364736f6c63430008180033",
  "linkReferences": {},
  "deployedLinkReferences": {}
}