{
  "_format": "hh-sol-artifact-1",
  "contractName": "SSVOperatorsMock",
  "sourceName": "contracts/SSVOperatorsMock.sol",
  "abi": [
    {
      "inputs": [],
      "stateMutability": "payable",
      "type": "constructor"
    },
    {
      "inputs": [],
      "name": "attacker",
      "outputs": [
        {
          "internalType": "address",
          "name": "",
          "type": "address"
        }
      ],
      "stateMutability": "view",
      "type": "function"
    },
    {
      "inputs": [
        {
          "internalType": "uint64",
          "name": "",
          "type": "uint64"
        }
      ],
      "name": "earnings",
      "outputs": [
        {
          "internalType": "uint256",
          "name": "",
          "type": "uint256"
        }
      ],
      "stateMutability": "view",
      "type": "function"
    },
    {
      "inputs": [
        {
          "internalType": "uint64",
          "name": "operatorId",
          "type": "uint64"
        }
      ],
      "name": "withdrawAllOperatorEarnings",
      "outputs": [],
      "stateMutability": "nonpayable",
      "type": "function"
    },
    {
      "stateMutability": "payable",
      "type": "receive"
    }
  ],
  "bytecode": "0x608060405233600160006101000a81548173ffffffffffffffffffffffffffffffffffffffff021916908373ffffffffffffffffffffffffffffffffffffffff160217905550674563918244f40000600080600167ffffffffffffffff168152602001908152602001600020819055506104c58061007e6000396000f3fe6080604052600436106100385760003560e01c80633a32ef651461004457806348eb76ee146100815780634bc93b64146100ac5761003f565b3661003f57005b600080fd5b34801561005057600080fd5b5061006b600480360381019061006691906102a3565b6100d5565b60405161007891906102e9565b60405180910390f35b34801561008d57600080fd5b506100966100ed565b6040516100a39190610345565b60405180910390f35b3480156100b857600080fd5b506100d360048036038101906100ce91906102a3565b610113565b005b60006020528060005260406000206000915090505481565b600160009054906101000a900473ffffffffffffffffffffffffffffffffffffffff1681565b60008060008367ffffffffffffffff1667ffffffffffffffff16815260200190815260200160002054905060008111610181576040517f08c379a0000000000000000000000000000000000000000000000000000000008152600401610178906103bd565b60405180910390fd5b60008060008467ffffffffffffffff1667ffffffffffffffff1681526020019081526020016000208190555060003373ffffffffffffffffffffffffffffffffffffffff16826040516101d39061040e565b60006040518083038185875af1925050503d8060008114610210576040519150601f19603f3d011682016040523d82523d6000602084013e610215565b606091505b5050905080610259576040517f08c379a00000000000000000000000000000000000000000000000000000000081526004016102509061046f565b60405180910390fd5b505050565b600080fd5b600067ffffffffffffffff82169050919050565b61028081610263565b811461028b57600080fd5b50565b60008135905061029d81610277565b92915050565b6000602082840312156102b9576102b861025e565b5b60006102c78482850161028e565b91505092915050565b6000819050919050565b6102e3816102d0565b82525050565b60006020820190506102fe60008301846102da565b92915050565b600073ffffffffffffffffffffffffffffffffffffffff82169050919050565b600061032f82610304565b9050919050565b61033f81610324565b82525050565b600060208201905061035a6000830184610336565b92915050565b600082825260208201905092915050565b7f4e6f7468696e6720746f20776974686472617700000000000000000000000000600082015250565b60006103a7601383610360565b91506103b282610371565b602082019050919050565b600060208201905081810360008301526103d68161039a565b9050919050565b600081905092915050565b50565b60006103f86000836103dd565b9150610403826103e8565b600082019050919050565b6000610419826103eb565b9150819050919050565b7f5472616e73666572206661696c65640000000000000000000000000000000000600082015250565b6000610459600f83610360565b915061046482610423565b602082019050919050565b600060208201905081810360008301526104888161044c565b905091905056fea2646970667358221220a3d19c64b05254762087d3040851bda8d2a3614a7df5f036018c361a8bec188c64736f6c63430008180033",
  "linkReferences": {},
  "deployedLinkReferences": {}
}