{"contracts/SSVOperators.sol":{"SSVOperators":{"abi":[{"inputs":[{"internalType":"uint64","name":"","type":"uint64"}],"name":"earnings","outputs":[{"internalType":"uint256","name":"","type":"uint256"}],"stateMutability":"view","type":"function"},{"inputs":[],"name":"lastId","outputs":[{"internalType":"uint64","name":"","type":"uint64"}],"stateMutability":"view","type":"function"},{"inputs":[{"internalType":"uint64","name":"","type":"uint64"}],"name":"owners","outputs":[{"internalType":"address","name":"","type":"address"}],"stateMutability":"view","type":"function"},{"inputs":[{"internalType":"bytes","name":"","type":"bytes"},{"internalType":"uint256","name":"fee","type":"uint256"},{"internalType":"bool","name":"","type":"bool"}],"name":"registerOperator","outputs":[{"internalType":"uint64","name":"id","type":"uint64"}],"stateMutability":"nonpayable","type":"function"},{"inputs":[{"internalType":"uint64","name":"operatorId","type":"uint64"},{"internalType":"address","name":"newOwner","type":"address"}],"name":"setOperatorOwner","outputs":[],"stateMutability":"nonpayable","type":"function"},{"inputs":[{"internalType":"uint64","name":"operatorId","type":"uint64"}],"name":"withdrawAllOperatorEarnings","outputs":[],"stateMutability":"nonpayable","type":"function"},{"stateMutability":"payable","type":"receive"}],"evm":{"bytecode":{"linkReferences":{},"object":"608060405234801561001057600080fd5b50610b0c806100206000396000f3fe6080604052600436106100595760003560e01c80633a32ef65146100655780634bc93b64146100a257806358f20a63146100cb5780639729499014610108578063c1292cc314610131578063c9bbc9fa1461015c57610060565b3661006057005b600080fd5b34801561007157600080fd5b5061008c600480360381019061008791906105e0565b610199565b6040516100999190610626565b60405180910390f35b3480156100ae57600080fd5b506100c960048036038101906100c491906105e0565b6101b1565b005b3480156100d757600080fd5b506100f260048036038101906100ed91906105e0565b6103b1565b6040516100ff9190610682565b60405180910390f35b34801561011457600080fd5b5061012f600480360381019061012a91906106c9565b6103e4565b005b34801561013d57600080fd5b5061014661044e565b6040516101539190610718565b60405180910390f35b34801561016857600080fd5b50610183600480360381019061017e91906107fc565b610468565b6040516101909190610718565b60405180910390f35b60006020528060005260406000206000915090505481565b600160008267ffffffffffffffff1667ffffffffffffffff16815260200190815260200160002060009054906101000a900473ffffffffffffffffffffffffffffffffffffffff1673ffffffffffffffffffffffffffffffffffffffff163373ffffffffffffffffffffffffffffffffffffffff1614610266576040517f08c379a000000000000000000000000000000000000000000000000000000000815260040161025d906108cd565b60405180910390fd5b60008060008367ffffffffffffffff1667ffffffffffffffff168152602001908152602001600020549050600081116102d4576040517f08c379a00000000000000000000000000000000000000000000000000000000081526004016102cb90610939565b60405180910390fd5b60008060008467ffffffffffffffff1667ffffffffffffffff1681526020019081526020016000208190555060003373ffffffffffffffffffffffffffffffffffffffff16826040516103269061098a565b60006040518083038185875af1925050503d8060008114610363576040519150601f19603f3d011682016040523d82523d6000602084013e610368565b606091505b50509050806103ac576040517f08c379a00000000000000000000000000000000000000000000000000000000081526004016103a3906109eb565b60405180910390fd5b505050565b60016020528060005260406000206000915054906101000a900473ffffffffffffffffffffffffffffffffffffffff1681565b80600160008467ffffffffffffffff1667ffffffffffffffff16815260200190815260200160002060006101000a81548173ffffffffffffffffffffffffffffffffffffffff021916908373ffffffffffffffffffffffffffffffffffffffff1602179055505050565b600260009054906101000a900467ffffffffffffffff1681565b60008083116104ac576040517f08c379a00000000000000000000000000000000000000000000000000000000081526004016104a390610a57565b60405180910390fd5b6002600081819054906101000a900467ffffffffffffffff166104ce90610aa6565b91906101000a81548167ffffffffffffffff021916908367ffffffffffffffff1602179055905033600160008367ffffffffffffffff1667ffffffffffffffff16815260200190815260200160002060006101000a81548173ffffffffffffffffffffffffffffffffffffffff021916908373ffffffffffffffffffffffffffffffffffffffff160217905550678ac7230489e800006000808367ffffffffffffffff1667ffffffffffffffff16815260200190815260200160002081905550949350505050565b600080fd5b600080fd5b600067ffffffffffffffff82169050919050565b6105bd816105a0565b81146105c857600080fd5b50565b6000813590506105da816105b4565b92915050565b6000602082840312156105f6576105f5610596565b5b6000610604848285016105cb565b91505092915050565b6000819050919050565b6106208161060d565b82525050565b600060208201905061063b6000830184610617565b92915050565b600073ffffffffffffffffffffffffffffffffffffffff82169050919050565b600061066c82610641565b9050919050565b61067c81610661565b82525050565b60006020820190506106976000830184610673565b92915050565b6106a681610661565b81146106b157600080fd5b50565b6000813590506106c38161069d565b92915050565b600080604083850312156106e0576106df610596565b5b60006106ee858286016105cb565b92505060206106ff858286016106b4565b9150509250929050565b610712816105a0565b82525050565b600060208201905061072d6000830184610709565b92915050565b600080fd5b600080fd5b600080fd5b60008083601f84011261075857610757610733565b5b8235905067ffffffffffffffff81111561077557610774610738565b5b6020830191508360018202830111156107915761079061073d565b5b9250929050565b6107a18161060d565b81146107ac57600080fd5b50565b6000813590506107be81610798565b92915050565b60008115159050919050565b6107d9816107c4565b81146107e457600080fd5b50565b6000813590506107f6816107d0565b92915050565b6000806000806060858703121561081657610815610596565b5b600085013567ffffffffffffffff8111156108345761083361059b565b5b61084087828801610742565b94509450506020610853878288016107af565b9250506040610864878288016107e7565b91505092959194509250565b600082825260208201905092915050565b7f4e6f74206f776e65720000000000000000000000000000000000000000000000600082015250565b60006108b7600983610870565b91506108c282610881565b602082019050919050565b600060208201905081810360008301526108e6816108aa565b9050919050565b7f4e6f206561726e696e6773000000000000000000000000000000000000000000600082015250565b6000610923600b83610870565b915061092e826108ed565b602082019050919050565b6000602082019050818103600083015261095281610916565b9050919050565b600081905092915050565b50565b6000610974600083610959565b915061097f82610964565b600082019050919050565b600061099582610967565b9150819050919050565b7f5472616e73666572206661696c65640000000000000000000000000000000000600082015250565b60006109d5600f83610870565b91506109e08261099f565b602082019050919050565b60006020820190508181036000830152610a04816109c8565b9050919050565b7f46656520746f6f206c6f77000000000000000000000000000000000000000000600082015250565b6000610a41600b83610870565b9150610a4c82610a0b565b602082019050919050565b60006020820190508181036000830152610a7081610a34565b9050919050565b7f4e487b7100000000000000000000000000000000000000000000000000000000600052601160045260246000fd5b6000610ab1826105a0565b915067ffffffffffffffff8203610acb57610aca610a77565b5b60018201905091905056fea2646970667358221220753c3c5c8ee5fea6fcff3d4550df2f5b1ada05901ef667b1d217b5e14a896df364736f6c63430008180033","opcodes":"PUSH1 0x80 PUSH1 0x40 MSTORE CALLVALUE DUP1 ISZERO PUSH2 0x10 JUMPI PUSH1 0x0 DUP1 REVERT JUMPDEST POP PUSH2 0xB0C DUP1 PUSH2 0x20 PUSH1 0x0 CODECOPY PUSH1 0x0 RETURN INVALID PUSH1 0x80 PUSH1 0x40 MSTORE PUSH1 0x4 CALLDATASIZE LT PUSH2 0x59 JUMPI PUSH1 0x0 CALLDATALOAD PUSH1 0xE0 SHR DUP1 PUSH4 0x3A32EF65 EQ PUSH2 0x65 JUMPI DUP1 PUSH4 0x4BC93B64 EQ PUSH2 0xA2 JUMPI DUP1 PUSH4 0x58F20A63 EQ PUSH2 0xCB JUMPI DUP1 PUSH4 0x97294990 EQ PUSH2 0x108 JUMPI DUP1 PUSH4 0xC1292CC3 EQ PUSH2 0x131 JUMPI DUP1 PUSH4 0xC9BBC9FA EQ PUSH2 0x15C JUMPI PUSH2 0x60 JUMP JUMPDEST CALLDATASIZE PUSH2 0x60 JUMPI STOP JUMPDEST PUSH1 0x0 DUP1 REVERT JUMPDEST CALLVALUE DUP1 ISZERO PUSH2 0x71 JUMPI PUSH1 0x0 DUP1 REVERT JUMPDEST POP PUSH2 0x8C PUSH1 0x4 DUP1 CALLDATASIZE SUB DUP2 ADD SWAP1 PUSH2 0x87 SWAP2 SWAP1 PUSH2 0x5E0 JUMP JUMPDEST PUSH2 0x199 JUMP JUMPDEST PUSH1 0x40 MLOAD PUSH2 0x99 SWAP2 SWAP1 PUSH2 0x626 JUMP JUMPDEST PUSH1 0x40 MLOAD DUP1 SWAP2 SUB SWAP1 RETURN JUMPDEST CALLVALUE DUP1 ISZERO PUSH2 0xAE JUMPI PUSH1 0x0 DUP1 REVERT JUMPDEST POP PUSH2 0xC9 PUSH1 0x4 DUP1 CALLDATASIZE SUB DUP2 ADD SWAP1 PUSH2 0xC4 SWAP2 SWAP1 PUSH2 0x5E0 JUMP JUMPDEST PUSH2 0x1B1 JUMP JUMPDEST STOP JUMPDEST CALLVALUE DUP1 ISZERO PUSH2 0xD7 JUMPI PUSH1 0x0 DUP1 REVERT JUMPDEST POP PUSH2 0xF2 PUSH1 0x4 DUP1 CALLDATASIZE SUB DUP2 ADD SWAP1 PUSH2 0xED SWAP2 SWAP1 PUSH2 0x5E0 JUMP JUMPDEST PUSH2 0x3B1 JUMP JUMPDEST PUSH1 0x40 MLOAD PUSH2 0xFF SWAP2 SWAP1 PUSH2 0x682 JUMP JUMPDEST PUSH1 0x40 MLOAD DUP1 SWAP2 SUB SWAP1 RETURN JUMPDEST CALLVALUE DUP1 ISZERO PUSH2 0x114 JUMPI PUSH1 0x0 DUP1 REVERT JUMPDEST POP PUSH2 0x12F PUSH1 0x4 DUP1 CALLDATASIZE SUB DUP2 ADD SWAP1 PUSH2 0x12A SWAP2 SWAP1 PUSH2 0x6C9 JUMP JUMPDEST PUSH2 0x3E4 JUMP JUMPDEST STOP JUMPDEST CALLVALUE DUP1 ISZERO PUSH2 0x13D JUMPI PUSH1 0x0 DUP1 REVERT JUMPDEST POP PUSH2 0x146 PUSH2 0x44E JUMP JUMPDEST PUSH1 0x40 MLOAD PUSH2 0x153 SWAP2 SWAP1 PUSH2 0x718 JUMP JUMPDEST PUSH1 0x40 MLOAD DUP1 SWAP2 SUB SWAP1 RETURN JUMPDEST CALLVALUE DUP1 ISZERO PUSH2 0x168 JUMPI PUSH1 0x0 DUP1 REVERT JUMPDEST POP PUSH2 0x183 PUSH1 0x4 DUP1 CALLDATASIZE SUB DUP2 ADD SWAP1 PUSH2 0x17E SWAP2 SWAP1 PUSH2 0x7FC JUMP JUMPDEST PUSH2 0x468 JUMP JUMPDEST PUSH1 0x40 MLOAD PUSH2 0x190 SWAP2 SWAP1 PUSH2 0x718 JUMP JUMPDEST PUSH1 0x40 MLOAD DUP1 SWAP2 SUB SWAP1 RETURN JUMPDEST PUSH1 0x0 PUSH1 0x20 MSTORE DUP1 PUSH1 0x0 MSTORE PUSH1 0x40 PUSH1 0x0 KECCAK256 PUSH1 0x0 SWAP2 POP SWAP1 POP SLOAD DUP2 JUMP JUMPDEST PUSH1 0x1 PUSH1 0x0 DUP3 PUSH8 0xFFFFFFFFFFFFFFFF AND PUSH8 0xFFFFFFFFFFFFFFFF AND DUP2 MSTORE PUSH1 0x20 ADD SWAP1 DUP2 MSTORE PUSH1 0x20 ADD PUSH1 0x0 KECCAK256 PUSH1 0x0 SWAP1 SLOAD SWAP1 PUSH2 0x100 EXP SWAP1 DIV PUSH20 0xFFFFFFFFFFFFFFFFFFFFFFFFFFFFFFFFFFFFFFFF AND PUSH20 0xFFFFFFFFFFFFFFFFFFFFFFFFFFFFFFFFFFFFFFFF AND CALLER PUSH20 0xFFFFFFFFFFFFFFFFFFFFFFFFFFFFFFFFFFFFFFFF AND EQ PUSH2 0x266 JUMPI PUSH1 0x40 MLOAD PUSH32 0x8C379A000000000000000000000000000000000000000000000000000000000 DUP2 MSTORE PUSH1 0x4 ADD PUSH2 0x25D SWAP1 PUSH2 0x8CD JUMP JUMPDEST PUSH1 0x40 MLOAD DUP1 SWAP2 SUB SWAP1 REVERT JUMPDEST PUSH1 0x0 DUP1 PUSH1 0x0 DUP4 PUSH8 0xFFFFFFFFFFFFFFFF AND PUSH8 0xFFFFFFFFFFFFFFFF AND DUP2 MSTORE PUSH1 0x20 ADD SWAP1 DUP2 MSTORE PUSH1 0x20 ADD PUSH1 0x0 KECCAK256 SLOAD SWAP1 POP PUSH1 0x0 DUP2 GT PUSH2 0x2D4 JUMPI PUSH1 0x40 MLOAD PUSH32 0x8C379A000000000000000000000000000000000000000000000000000000000 DUP2 MSTORE PUSH1 0x4 ADD PUSH2 0x2CB SWAP1 PUSH2 0x939 JUMP JUMPDEST PUSH1 0x40 MLOAD DUP1 SWAP2 SUB SWAP1 REVERT JUMPDEST PUSH1 0x0 DUP1 PUSH1 0x0 DUP5 PUSH8 0xFFFFFFFFFFFFFFFF AND PUSH8 0xFFFFFFFFFFFFFFFF AND DUP2 MSTORE PUSH1 0x20 ADD SWAP1 DUP2 MSTORE PUSH1 0x20 ADD PUSH1 0x0 KECCAK256 DUP2 SWAP1 SSTORE POP PUSH1 0x0 CALLER PUSH20 0xFFFFFFFFFFFFFFFFFFFFFFFFFFFFFFFFFFFFFFFF AND DUP3 PUSH1 0x40 MLOAD PUSH2 0x326 SWAP1 PUSH2 0x98A JUMP JUMPDEST PUSH1 0x0 PUSH1 0x40 MLOAD DUP1 DUP4 SUB DUP2 DUP6 DUP8 GAS CALL SWAP3 POP POP POP RETURNDATASIZE DUP1 PUSH1 0x0 DUP2 EQ PUSH2 0x363 JUMPI PUSH1 0x40 MLOAD SWAP2 POP PUSH1 0x1F NOT PUSH1 0x3F RETURNDATASIZE ADD AND DUP3 ADD PUSH1 0x40 MSTORE RETURNDATASIZE DUP3 MSTORE RETURNDATASIZE PUSH1 0x0 PUSH1 0x20 DUP5 ADD RETURNDATACOPY PUSH2 0x368 JUMP JUMPDEST PUSH1 0x60 SWAP2 POP JUMPDEST POP POP SWAP1 POP DUP1 PUSH2 0x3AC JUMPI PUSH1 0x40 MLOAD PUSH32 0x8C379A000000000000000000000000000000000000000000000000000000000 DUP2 MSTORE PUSH1 0x4 ADD PUSH2 0x3A3 SWAP1 PUSH2 0x9EB JUMP JUMPDEST PUSH1 0x40 MLOAD DUP1 SWAP2 SUB SWAP1 REVERT JUMPDEST POP POP POP JUMP JUMPDEST PUSH1 0x1 PUSH1 0x20 MSTORE DUP1 PUSH1 0x0 MSTORE PUSH1 0x40 PUSH1 0x0 KECCAK256 PUSH1 0x0 SWAP2 POP SLOAD SWAP1 PUSH2 0x100 EXP SWAP1 DIV PUSH20 0xFFFFFFFFFFFFFFFFFFFFFFFFFFFFFFFFFFFFFFFF AND DUP2 JUMP JUMPDEST DUP1 PUSH1 0x1 PUSH1 0x0 DUP5 PUSH8 0xFFFFFFFFFFFFFFFF AND PUSH8 0xFFFFFFFFFFFFFFFF AND DUP2 MSTORE PUSH1 0x20 ADD SWAP1 DUP2 MSTORE PUSH1 0x20 ADD PUSH1 0x0 KECCAK256 PUSH1 0x0 PUSH2 0x100 EXP DUP2 SLOAD DUP2 PUSH20 0xFFFFFFFFFFFFFFFFFFFFFFFFFFFFFFFFFFFFFFFF MUL NOT AND SWAP1 DUP4 PUSH20 0xFFFFFFFFFFFFFFFFFFFFFFFFFFFFFFFFFFFFFFFF AND MUL OR SWAP1 SSTORE POP POP POP JUMP JUMPDEST PUSH1 0x2 PUSH1 0x0 SWAP1 SLOAD SWAP1 PUSH2 0x100 EXP SWAP1 DIV PUSH8 0xFFFFFFFFFFFFFFFF AND DUP2 JUMP JUMPDEST PUSH1 0x0 DUP1 DUP4 GT PUSH2 0x4AC JUMPI PUSH1 0x40 MLOAD PUSH32 0x8C379A000000000000000000000000000000000000000000000000000000000 DUP2 MSTORE PUSH1 0x4 ADD PUSH2 0x4A3 SWAP1 PUSH2 0xA57 JUMP JUMPDEST PUSH1 0x40 MLOAD DUP1 SWAP2 SUB SWAP1 REVERT JUMPDEST PUSH1 0x2 PUSH1 0x0 DUP2 DUP2 SWAP1 SLOAD SWAP1 PUSH2 0x100 EXP SWAP1 DIV PUSH8 0xFFFFFFFFFFFFFFFF AND PUSH2 0x4CE SWAP1 PUSH2 0xAA6 JUMP JUMPDEST SWAP2 SWAP1 PUSH2 0x100 EXP DUP2 SLOAD DUP2 PUSH8 0xFFFFFFFFFFFFFFFF MUL NOT AND SWAP1 DUP4 PUSH8 0xFFFFFFFFFFFFFFFF AND MUL OR SWAP1 SSTORE SWAP1 POP CALLER PUSH1 0x1 PUSH1 0x0 DUP4 PUSH8 0xFFFFFFFFFFFFFFFF AND PUSH8 0xFFFFFFFFFFFFFFFF AND DUP2 MSTORE PUSH1 0x20 ADD SWAP1 DUP2 MSTORE PUSH1 0x20 ADD PUSH1 0x0 KECCAK256 PUSH1 0x0 PUSH2 0x100 EXP DUP2 SLOAD DUP2 PUSH20 0xFFFFFFFFFFFFFFFFFFFFFFFFFFFFFFFFFFFFFFFF MUL NOT AND SWAP1 DUP4 PUSH20 0xFFFFFFFFFFFFFFFFFFFFFFFFFFFFFFFFFFFFFFFF AND MUL OR SWAP1 SSTORE POP PUSH8 0x8AC7230489E80000 PUSH1 0x0 DUP1 DUP4 PUSH8 0xFFFFFFFFFFFFFFFF AND PUSH8 0xFFFFFFFFFFFFFFFF AND DUP2 MSTORE PUSH1 0x20 ADD SWAP1 DUP2 MSTORE PUSH1 0x20 ADD PUSH1 0x0 KECCAK256 DUP2 SWAP1 SSTORE POP SWAP5 SWAP4 POP POP POP POP JUMP JUMPDEST PUSH1 0x0 DUP1 REVERT JUMPDEST PUSH1 0x0 DUP1 REVERT JUMPDEST PUSH1 0x0 PUSH8 0xFFFFFFFFFFFFFFFF DUP3 AND SWAP1 POP SWAP2 SWAP1 POP JUMP JUMPDEST PUSH2 0x5BD DUP2 PUSH2 0x5A0 JUMP JUMPDEST DUP2 EQ PUSH2 0x5C8 JUMPI PUSH1 0x0 DUP1 REVERT JUMPDEST POP JUMP JUMPDEST PUSH1 0x0 DUP2 CALLDATALOAD SWAP1 POP PUSH2 0x5DA DUP2 PUSH2 0x5B4 JUMP JUMPDEST SWAP3 SWAP2 POP POP JUMP JUMPDEST PUSH1 0x0 PUSH1 0x20 DUP3 DUP5 SUB SLT ISZERO PUSH2 0x5F6 JUMPI PUSH2 0x5F5 PUSH2 0x596 JUMP JUMPDEST JUMPDEST PUSH1 0x0 PUSH2 0x604 DUP5 DUP3 DUP6 ADD PUSH2 0x5CB JUMP JUMPDEST SWAP2 POP POP SWAP3 SWAP2 POP POP JUMP JUMPDEST PUSH1 0x0 DUP2 SWAP1 POP SWAP2 SWAP1 POP JUMP JUMPDEST PUSH2 0x620 DUP2 PUSH2 0x60D JUMP JUMPDEST DUP3 MSTORE POP POP JUMP JUMPDEST PUSH1 0x0 PUSH1 0x20 DUP3 ADD SWAP1 POP PUSH2 0x63B PUSH1 0x0 DUP4 ADD DUP5 PUSH2 0x617 JUMP JUMPDEST SWAP3 SWAP2 POP POP JUMP JUMPDEST PUSH1 0x0 PUSH20 0xFFFFFFFFFFFFFFFFFFFFFFFFFFFFFFFFFFFFFFFF DUP3 AND SWAP1 POP SWAP2 SWAP1 POP JUMP JUMPDEST PUSH1 0x0 PUSH2 0x66C DUP3 PUSH2 0x641 JUMP JUMPDEST SWAP1 POP SWAP2 SWAP1 POP JUMP JUMPDEST PUSH2 0x67C DUP2 PUSH2 0x661 JUMP JUMPDEST DUP3 MSTORE POP POP JUMP JUMPDEST PUSH1 0x0 PUSH1 0x20 DUP3 ADD SWAP1 POP PUSH2 0x697 PUSH1 0x0 DUP4 ADD DUP5 PUSH2 0x673 JUMP JUMPDEST SWAP3 SWAP2 POP POP JUMP JUMPDEST PUSH2 0x6A6 DUP2 PUSH2 0x661 JUMP JUMPDEST DUP2 EQ PUSH2 0x6B1 JUMPI PUSH1 0x0 DUP1 REVERT JUMPDEST POP JUMP JUMPDEST PUSH1 0x0 DUP2 CALLDATALOAD SWAP1 POP PUSH2 0x6C3 DUP2 PUSH2 0x69D JUMP JUMPDEST SWAP3 SWAP2 POP POP JUMP JUMPDEST PUSH1 0x0 DUP1 PUSH1 0x40 DUP4 DUP6 SUB SLT ISZERO PUSH2 0x6E0 JUMPI PUSH2 0x6DF PUSH2 0x596 JUMP JUMPDEST JUMPDEST PUSH1 0x0 PUSH2 0x6EE DUP6 DUP3 DUP7 ADD PUSH2 0x5CB JUMP JUMPDEST SWAP3 POP POP PUSH1 0x20 PUSH2 0x6FF DUP6 DUP3 DUP7 ADD PUSH2 0x6B4 JUMP JUMPDEST SWAP2 POP POP SWAP3 POP SWAP3 SWAP1 POP JUMP JUMPDEST PUSH2 0x712 DUP2 PUSH2 0x5A0 JUMP JUMPDEST DUP3 MSTORE POP POP JUMP JUMPDEST PUSH1 0x0 PUSH1 0x20 DUP3 ADD SWAP1 POP PUSH2 0x72D PUSH1 0x0 DUP4 ADD DUP5 PUSH2 0x709 JUMP JUMPDEST SWAP3 SWAP2 POP POP JUMP JUMPDEST PUSH1 0x0 DUP1 REVERT JUMPDEST PUSH1 0x0 DUP1 REVERT JUMPDEST PUSH1 0x0 DUP1 REVERT JUMPDEST PUSH1 0x0 DUP1 DUP4 PUSH1 0x1F DUP5 ADD SLT PUSH2 0x758 JUMPI PUSH2 0x757 PUSH2 0x733 JUMP JUMPDEST JUMPDEST DUP3 CALLDATALOAD SWAP1 POP PUSH8 0xFFFFFFFFFFFFFFFF DUP2 GT ISZERO PUSH2 0x775 JUMPI PUSH2 0x774 PUSH2 0x738 JUMP JUMPDEST JUMPDEST PUSH1 0x20 DUP4 ADD SWAP2 POP DUP4 PUSH1 0x1 DUP3 MUL DUP4 ADD GT ISZERO PUSH2 0x791 JUMPI PUSH2 0x790 PUSH2 0x73D JUMP JUMPDEST JUMPDEST SWAP3 POP SWAP3 SWAP1 POP JUMP JUMPDEST PUSH2 0x7A1 DUP2 PUSH2 0x60D JUMP JUMPDEST DUP2 EQ PUSH2 0x7AC JUMPI PUSH1 0x0 DUP1 REVERT JUMPDEST POP JUMP JUMPDEST PUSH1 0x0 DUP2 CALLDATALOAD SWAP1 POP PUSH2 0x7BE DUP2 PUSH2 0x798 JUMP JUMPDEST SWAP3 SWAP2 POP POP JUMP JUMPDEST PUSH1 0x0 DUP2 ISZERO ISZERO SWAP1 POP SWAP2 SWAP1 POP JUMP JUMPDEST PUSH2 0x7D9 DUP2 PUSH2 0x7C4 JUMP JUMPDEST DUP2 EQ PUSH2 0x7E4 JUMPI PUSH1 0x0 DUP1 REVERT JUMPDEST POP JUMP JUMPDEST PUSH1 0x0 DUP2 CALLDATALOAD SWAP1 POP PUSH2 0x7F6 DUP2 PUSH2 0x7D0 JUMP JUMPDEST SWAP3 SWAP2 POP POP JUMP JUMPDEST PUSH1 0x0 DUP1 PUSH1 0x0 DUP1 PUSH1 0x60 DUP6 DUP8 SUB SLT ISZERO PUSH2 0x816 JUMPI PUSH2 0x815 PUSH2 0x596 JUMP JUMPDEST JUMPDEST PUSH1 0x0 DUP6 ADD CALLDATALOAD PUSH8 0xFFFFFFFFFFFFFFFF DUP2 GT ISZERO PUSH2 0x834 JUMPI PUSH2 0x833 PUSH2 0x59B JUMP JUMPDEST JUMPDEST PUSH2 0x840 DUP8 DUP3 DUP9 ADD PUSH2 0x742 JUMP JUMPDEST SWAP5 POP SWAP5 POP POP PUSH1 0x20 PUSH2 0x853 DUP8 DUP3 DUP9 ADD PUSH2 0x7AF JUMP JUMPDEST SWAP3 POP POP PUSH1 0x40 PUSH2 0x864 DUP8 DUP3 DUP9 ADD PUSH2 0x7E7 JUMP JUMPDEST SWAP2 POP POP SWAP3 SWAP6 SWAP2 SWAP5 POP SWAP3 POP JUMP JUMPDEST PUSH1 0x0 DUP3 DUP3 MSTORE PUSH1 0x20 DUP3 ADD SWAP1 POP SWAP3 SWAP2 POP POP JUMP JUMPDEST PUSH32 0x4E6F74206F776E65720000000000000000000000000000000000000000000000 PUSH1 0x0 DUP3 ADD MSTORE POP JUMP JUMPDEST PUSH1 0x0 PUSH2 0x8B7 PUSH1 0x9 DUP4 PUSH2 0x870 JUMP JUMPDEST SWAP2 POP PUSH2 0x8C2 DUP3 PUSH2 0x881 JUMP JUMPDEST PUSH1 0x20 DUP3 ADD SWAP1 POP SWAP2 SWAP1 POP JUMP JUMPDEST PUSH1 0x0 PUSH1 0x20 DUP3 ADD SWAP1 POP DUP2 DUP2 SUB PUSH1 0x0 DUP4 ADD MSTORE PUSH2 0x8E6 DUP2 PUSH2 0x8AA JUMP JUMPDEST SWAP1 POP SWAP2 SWAP1 POP JUMP JUMPDEST PUSH32 0x4E6F206561726E696E6773000000000000000000000000000000000000000000 PUSH1 0x0 DUP3 ADD MSTORE POP JUMP JUMPDEST PUSH1 0x0 PUSH2 0x923 PUSH1 0xB DUP4 PUSH2 0x870 JUMP JUMPDEST SWAP2 POP PUSH2 0x92E DUP3 PUSH2 0x8ED JUMP JUMPDEST PUSH1 0x20 DUP3 ADD SWAP1 POP SWAP2 SWAP1 POP JUMP JUMPDEST PUSH1 0x0 PUSH1 0x20 DUP3 ADD SWAP1 POP DUP2 DUP2 SUB PUSH1 0x0 DUP4 ADD MSTORE PUSH2 0x952 DUP2 PUSH2 0x916 JUMP JUMPDEST SWAP1 POP SWAP2 SWAP1 POP JUMP JUMPDEST PUSH1 0x0 DUP2 SWAP1 POP SWAP3 SWAP2 POP POP JUMP JUMPDEST POP JUMP JUMPDEST PUSH1 0x0 PUSH2 0x974 PUSH1 0x0 DUP4 PUSH2 0x959 JUMP JUMPDEST SWAP2 POP PUSH2 0x97F DUP3 PUSH2 0x964 JUMP JUMPDEST PUSH1 0x0 DUP3 ADD SWAP1 POP SWAP2 SWAP1 POP JUMP JUMPDEST PUSH1 0x0 PUSH2 0x995 DUP3 PUSH2 0x967 JUMP JUMPDEST SWAP2 POP DUP2 SWAP1 POP SWAP2 SWAP1 POP JUMP JUMPDEST PUSH32 0x5472616E73666572206661696C65640000000000000000000000000000000000 PUSH1 0x0 DUP3 ADD MSTORE POP JUMP JUMPDEST PUSH1 0x0 PUSH2 0x9D5 PUSH1 0xF DUP4 PUSH2 0x870 JUMP JUMPDEST SWAP2 POP PUSH2 0x9E0 DUP3 PUSH2 0x99F JUMP JUMPDEST PUSH1 0x20 DUP3 ADD SWAP1 POP SWAP2 SWAP1 POP JUMP JUMPDEST PUSH1 0x0 PUSH1 0x20 DUP3 ADD SWAP1 POP DUP2 DUP2 SUB PUSH1 0x0 DUP4 ADD MSTORE PUSH2 0xA04 DUP2 PUSH2 0x9C8 JUMP JUMPDEST SWAP1 POP SWAP2 SWAP1 POP JUMP JUMPDEST PUSH32 0x46656520746F6F206C6F77000000000000000000000000000000000000000000 PUSH1 0x0 DUP3 ADD MSTORE POP JUMP JUMPDEST PUSH1 0x0 PUSH2 0xA41 PUSH1 0xB DUP4 PUSH2 0x870 JUMP JUMPDEST SWAP2 POP PUSH2 0xA4C DUP3 PUSH2 0xA0B JUMP JUMPDEST PUSH1 0x20 DUP3 ADD SWAP1 POP SWAP2 SWAP1 POP JUMP JUMPDEST PUSH1 0x0 PUSH1 0x20 DUP3 ADD SWAP1 POP DUP2 DUP2 SUB PUSH1 0x0 DUP4 ADD MSTORE PUSH2 0xA70 DUP2 PUSH2 0xA34 JUMP JUMPDEST SWAP1 POP SWAP2 SWAP1 POP JUMP JUMPDEST PUSH32 0x4E487B7100000000000000000000000000000000000000000000000000000000 PUSH1 0x0 MSTORE PUSH1 0x11 PUSH1 0x4 MSTORE PUSH1 0x24 PUSH1 0x0 REVERT JUMPDEST PUSH1 0x0 PUSH2 0xAB1 DUP3 PUSH2 0x5A0 JUMP JUMPDEST SWAP2 POP PUSH8 0xFFFFFFFFFFFFFFFF DUP3 SUB PUSH2 0xACB JUMPI PUSH2 0xACA PUSH2 0xA77 JUMP JUMPDEST JUMPDEST PUSH1 0x1 DUP3 ADD SWAP1 POP SWAP2 SWAP1 POP JUMP INVALID LOG2 PUSH5 0x6970667358 0x22 SLT KECCAK256 PUSH22 0x3C3C5C8EE5FEA6FCFF3D4550DF2F5B1ADA05901EF667 0xB1 0xD2 OR 0xB5 0xE1 BLOBBASEFEE DUP10 PUSH14 0xF364736F6C634300081800330000 "},"methodIdentifiers":{"earnings(uint64)":"3a32ef65","lastId()":"c1292cc3","owners(uint64)":"58f20a63","registerOperator(bytes,uint256,bool)":"c9bbc9fa","setOperatorOwner(uint64,address)":"97294990","withdrawAllOperatorEarnings(uint64)":"4bc93b64"}}}}}